{"abi":[{"type":"constructor","inputs":[{"name":"_beneficiary","type":"address","internalType":"address"},{"name":"_arbiter","type":"address","internalType":"address"}],"stateMutability":"payable"},{"type":"function","name":"approve","inputs":[],"outputs":[],"stateMutability":"nonpayable"},{"type":"function","name":"arbiter","inputs":[],"outputs":[{"name":"","type":"address","internalType":"address"}],"stateMutability":"view"},{"type":"function","name":"beneficiary","inputs":[],"outputs":[{"name":"","type":"address","internalType":"address"}],"stateMutability":"view"},{"type":"function","name":"depositor","inputs":[],"outputs":[{"name":"","type":"address","internalType":"address"}],"stateMutability":"view"},{"type":"event","name":"Approved","inputs":[{"name":"","type":"uint256","indexed":false,"internalType":"uint256"}],"anonymous":false}],"bytecode":{"object":"0x608060405260405161024b38038061024b8339810160408190526020916076565b600080546001600160a01b03199081163317909155600180546001600160a01b039485169083161790556002805492909316911617905560a4565b80516001600160a01b0381168114607157600080fd5b919050565b60008060408385031215608857600080fd5b608f83605b565b9150609b60208401605b565b90509250929050565b610198806100b36000396000f3fe608060405234801561001057600080fd5b506004361061004c5760003560e01c806312424e3f1461005157806338af3eed1461005b578063c7c4ff461461008a578063fe25e00a1461009d575b600080fd5b6100596100b0565b005b60015461006e906001600160a01b031681565b6040516001600160a01b03909116815260200160405180910390f35b60005461006e906001600160a01b031681565b60025461006e906001600160a01b031681565b6002546001600160a01b031633146100c757600080fd5b60015460405147916000916001600160a01b039091169083908381818185875af1925050503d8060008114610118576040519150601f19603f3d011682016040523d82523d6000602084013e61011d565b606091505b505090508061012b57600080fd5b6040518281527f3ad93af63cb7967b23e4fb500b7d7d28b07516325dcf341f88bebf959d82c1cb9060200160405180910390a1505056fea264697066735822122043ddc9e1fdca94a1e463aacf06f83f17d55212effd875b5f6e0898d1a0bfacab64736f6c63430008190033","linkReferences":{}},"methodIdentifiers":{"approve()":"12424e3f","arbiter()":"fe25e00a","beneficiary()":"38af3eed","depositor()":"c7c4ff46"},"id":0}